:020000040800F2
:1000000000000C2095070008CF060008D506000860
:10001000DB060008E1060008E7060008E50700081F
:10002000000000000000000000000000ED060008D5
:10003000FB06000800000000090700081707000879
:10004000E5070008E5070008E5070008E5070008E0
:10005000E5070008E5070008E5070008E5070008D0
:10006000E5070008E5070008E5070008E5070008C0
:10007000E5070008E5070008E5070008E5070008B0
:10008000E5070008E5070008E5070008E5070008A0
:10009000E5070008E5070008E5070008E507000890
:1000A000E5070008E5070008E5070008E507000880
:1000B00000000000E5070008E5070008E507000864
:1000C000E5070008E5070008E5070008E507000860
:1000D000E5070008E5070008E5070008E507000850
:1000E000E5070008E5070008E5070008E507000840
:1000F000E5070008E5070008E5070008E507000830
:10010000E5070008E5070008E5070008E50700081F
:10011000E5070008E5070008E5070008E50700080F
:10012000E5070008E5070008E5070008E5070008FF
:10013000E5070008E5070008E5070008E5070008EF
:10014000E5070008E5070008E5070008E5070008DF
:10015000E5070008E5070008E5070008E5070008CF
:10016000E5070008E5070008E5070008E5070008BF
:10017000E5070008E5070008E5070008E5070008AF
:10018000E5070008E5070008E5070008E50700089F
:10019000E5070008E5070008E5070008E50700088F
:1001A000E5070008E5070008E5070008E50700087F
:1001B000E507000800000000E5070008E507000863
:1001C000E507000800000000E5070008E507000853
:1001D000E5070008E5070008E5070008E50700084F
:1001E000E5070008E5070008E5070008E50700083F
:1001F0000000000000000000E5070008E507000817
:10020000E5070008E5070008E5070008E50700081E
:10021000E5070008E5070008E5070008E50700080E
:10022000E5070008E5070008E5070008E5070008FE
:04023000E5070008D6
:1002340010B5054C237833B9044B13B1044800E0DE
:1002440000BF0123237010BD0C000020000000003B
:100254007C26000808B5034B1BB10349034800E0A2
:1002640000BF08BD00000000100000207C2600082C
:1002740080B500AF00F0B6FA00F01CF800F075F895
:1002840000F0AAF800F078F84FF47A7000F02EFB32
:100294004FF48071064800F021FE4FF400710448C9
:1002A40000F01CFE4FF48061014800F017FEEBE7FC
:1002B4000004024280B59EB000AF07F1180360222B
:1002C4000021184602F0D0F93B4600221A605A6019
:1002D4009A60DA601A615A614FF4403000F0AAFE65
:1002E4000346002B01D000F0D9F91023BB61012390
:1002F4007B631023BB630023FB6302233B65012361
:100304007B650023FB650323BB650A233B6602234D
:100314007B660223BB660123FB6600233B67002345
:100324007B6707F11803184600F006FF0346002B0D
:1003340001D000F0B3F91F233B6003237B6000234B
:10034400BB600023FB6000233B6100237B613B46D1
:100354000421184601F0CAFD0346002B01D000F029
:100364009DF900BF7837BD4680BD80B400AF00BFA3
:10037400BD465DF8047B704780B586B000AF3B1D79
:1003840000221A605A609A60DA601A6100F0D0FDA7
:100394000346002B01D000F081F900237B60002389
:1003A400BB600123FB6000233B6100237B613B1D99
:1003B4001946002000F0ECFD0346002B01D000F0AC
:1003C4006DF900F0A5FD0346002B01D000F066F99D
:1003D40000BF1837BD4680BD80B58AB000AF07F1B5
:1003E400140300221A605A609A60DA601A61A54BFD
:1003F400D3F88C30A34A43F00403C2F88C30A14BE9
:10040400D3F88C3003F004033B613B699D4BD3F874
:100414008C309C4A43F00103C2F88C30994BD3F8DA
:100424008C3003F00103FB60FB68964BD3F88C30EF
:10043400944A43F00203C2F88C30924BD3F88C30C8
:1004440003F00203BB60BB688E4BD3F88C308D4A3B
:1004540043F01003C2F88C308A4BD3F88C3003F08D
:1004640010037B607B68874BD3F88C30854A43F05C
:100474000803C2F88C30834BD3F88C3003F00803A4
:100484003B603B6800224FF4E0617F4800F00EFDC2
:1004940003237B610223BB610023FB6100233B62D6
:1004A40008237B6207F114031946784800F026FB01
:1004B4000C237B610223BB610023FB6100233B62AD
:1004C40007237B6207F114031946714800F016FBF9
:1004D40010237B610223BB610023FB6103233B6286
:1004E40003237B6207F114031946694800F006FBF5
:1004F400C0237B610223BB610023FB6103233B62B6
:100504000A237B6207F114031946614800F0F6FAE6
:1005140003237B610223BB610023FB6103233B6252
:100524000A237B6207F114031946574800F0E6FAE0
:100534004FF480637B610223BB610023FB610323CF
:100544003B620A237B6207F114031946514800F009
:10055400D5FA4FF470437B610223BB610023FB6136
:1005640000233B6205237B6207F1140319464948C3
:1005740000F0C4FA4FF4E0637B610123BB61002304
:10058400FB6100233B6207F1140319463E4800F067
:10059400B5FA4FF440737B610223BB610023FB6116
:1005A40000233B6207237B6207F1140319463A4890
:1005B40000F0A4FA4FF4F8537B610223BB610023DB
:1005C400FB6102233B620C237B6207F1140319468F
:1005D4002E4800F093FA4FF4C0637B610223BB61A1
:1005E4000023FB6100233B6207237B6207F11403B2
:1005F4001946274800F082FA4FF4C0537B61022366
:10060400BB610023FB6100233B620A237B6207F189
:10061400140319461E4800F071FA04237B61022377
:10062400BB610023FB6102233B620C237B6207F165
:1006340014031946184800F061FA18237B61022359
:10064400BB610023FB6100233B6207237B6207F14C
:10065400140319460C4800F051FAC0237B6112239D
:10066400BB610023FB6100233B6204237B6207F12F
:1006740014031946044800F041FA00BF2837BD4668
:1006840080BD00BF000C0246000402420008024282
:100694000000024200100242000C024280B500AF8A
:1006A40072B600BFC82000F021F94FF480610248FF
:1006B40000F014FCF6E700BF0004024280B400AF6F
:1006C40000BFBD465DF8047B704780B400AFFEE711
:1006D40080B400AFFEE780B400AFFEE780B400AFA3
:1006E400FEE780B400AFFEE780B400AF00BFBD46B4
:1006F4005DF8047B704780B400AF00BFBD465DF871
:10070400047B704780B400AF00BFBD465DF8047B36
:10071400704780B500AF00F0C9F800BF80BD00008D
:1007240080B400AF184BD3F88830174A43F47003F1
:10073400C2F88830154B01221A60144B0022DA618A
:10074400124B00221A62114B00225A620F4B1B6893
:100754000E4A23F0A85323F4102313600B4B0022FA
:100764009A620A4B1B68094A23F480231360074BDF
:1007740000221A65044B4FF000629A6000BFBD4628
:100784005DF8047B704700BF00ED00E0000C0246FA
:10079400DFF834D0002103E00C4B5B5843500431A4
:1007A4000B480C4B42189A42F6D30B4A02E0002342
:1007B40042F8043B094B9A42F9D3FFF7B1FF01F029
:1007C4002FFFFFF755FDFEE700000C206C27000803
:1007D40000000020090000200C0000202C00002054
:1007E400FEE7000080B500AF114B1B68104A43F4CC
:1007F40080731360032000F04FF901F069FD024695
:100804000C4B1B6A03F00F030B49CB5C22FA03F376
:100814000A4A13600F2000F013F80346002B01D09E
:10082400012302E0FFF74AFF0023184680BD00BF02
:1008340000200240000C024694260008000000201C
:1008440080B582B000AF7860154B1B78002B01D1C6
:10085400012321E0134B1A68114B1B7819464FF4FE
:100864007A73B3FBF1F3B2FBF3F3184600F039F9F2
:100874000346002B01D001230EE07B680F2B0AD81E
:10088400002279684FF0FF3000F011F9064A7B68C6
:100894001360002300E0012318460837BD4680BDDD
:1008A40008000020000000200400002080B400AFF5
:1008B400064B1B781A46064B1B681344044A136004
:1008C40000BFBD465DF8047B704700BF08000020F0
:1008D4002800002080B400AF034B1B681846BD46B7
:1008E4005DF8047B704700BF2800002080B584B009
:1008F40000AF7860FFF7EEFFB8607B68FB60FB68D1
:10090400B3F1FF3F05D00A4B1B781A46FB6813442A
:10091400FB6000BFFFF7DEFF0246BB68D31AFA682C
:100924009A42F7D800BF00BF1037BD4680BD00BF54
:100934000800002080B485B000AF78607B6803F0C5
:100944000703FB600C4BDB68BB60BA684FF6FF0320
:100954001340BB60FB681A02BB68134343F0BF63D8
:1009640043F40033BB60044ABB68D36000BF143750
:10097400BD465DF8047B704700ED00E080B400AF35
:10098400044BDB681B0A03F007031846BD465DF8F9
:10099400047B704700ED00E080B483B000AF0346F1
:1009A4003960FB7197F90730002B0ADB3B68DAB238
:1009B4000C4997F907301201D2B20B4483F8002393
:1009C4000AE03B68DAB20849FB7903F00F03043B01
:1009D4001201D2B20B441A7600BF0C37BD465DF843
:1009E400047B704700E100E000ED00E080B489B0D2
:1009F40000AFF860B9607A60FB6803F00703FB613D
:100A0400FB69C3F10703042B28BF0423BB61FB6903
:100A14000433062B02D9FB69033B00E000237B610E
:100A24004FF0FF32BB6902FA03F3DA43BB681A40A2
:100A34007B699A404FF0FF317B6901FA03F3D94394
:100A44007B680B40134318462437BD465DF8047B8E
:100A54007047000080B582B000AF78607B68013BCE
:100A6400B3F1807F01D301230FE00A4A7B68013B85
:100A740053600F214FF0FF30FFF78EFF054B00222C
:100A84009A60044B07221A60002318460837BD46B3
:100A940080BD00BF10E000E080B582B000AF786098
:100AA4007868FFF747FF00BF0837BD4680BD80B5B3
:100AB40086B000AF0346B9607A60FB73FFF75EFF50
:100AC40078617A68B9687869FFF790FF024697F908
:100AD4000F3011461846FFF75FFF00BF1837BD46B9
:100AE40080BD80B582B000AF78607868FFF7B2FF50
:100AF400034618460837BD4680BD000080B489B05F
:100B040000AF7860396000237B617B683B61BAE1A8
:100B14003B681A6801217B6901FA03F31340FB6007
:100B24007B69BB61FB68002B00F0AA817B68554A96
:100B340093425DD17B681B68FB6101227B6902FAE9
:100B440003F3DB43FA691340FB613B685B6803F022
:100B540001027B6902FA03F3FA691343FB617B68C0
:100B6400FA691A60484A7B6952F833303B61464A55
:100B74007B69DB0013445B68BB61BB69DA083B69D2
:100B8400083253F82230FB61BB6903F007039B0072
:100B94000F2202FA03F3DB43FA691340FB61BB69DA
:100BA40003F007039B000B2202FA03F3FA691343D1
:100BB400FB61BB69DA083B690832F96943F8221022
:100BC4003B691B68FB61BB695B00032202FA03F308
:100BD400DB43FA691340FB61BB695B00022202FA42
:100BE40003F3FA691343FB613B69FA691A6067E02E
:100BF4003B685B68022B03D03B685B68122B45D1D2
:100C04007B69DA087B68083253F82230FB617B6920
:100C140003F007039B000F2202FA03F3DB43FA6994
:100C24001340FB613B681B6903F00F027B6903F00F
:100C340007039B0002FA03F3FA691343FB617B6920
:100C4400DA087B680832F96943F822103B691B68AB
:100C5400FB61BB695B00032202FA03F3DB43FA691D
:100C64001340FB613B685B6803F00302BB695B00F4
:100C740002FA03F3FA691343FB613B69FA691A60E8
:100C84001EE000BF00000246E42600083B691B6822
:100C9400FB61BB695B00032202FA03F3DB43FA69DD
:100CA4001340FB613B685B6803F00302BB695B00B4
:100CB40002FA03F3FA691343FB613B69FA691A60A8
:100CC4003B685B68012B0BD03B685B68022B07D049
:100CD4003B685B68112B03D03B685B68122B30D1F7
:100CE4003B699B68FB61BB695B00032202FA03F367
:100CF400DB43FA691340FB613B68DA68BB695B005C
:100D040002FA03F3FA691343FB613B69FA699A60D7
:100D14003B695B68FB610122BB6902FA03F3DB43B5
:100D2400FA691340FB613B685B681B0903F001022D
:100D3400BB6902FA03F3FA691343FB613B69FA697D
:100D44005A603B685B68032B17D03B69DB68FB6127
:100D5400BB695B00032202FA03F3DB43FA69134025
:100D6400FB613B689A68BB695B0002FA03F3FA69AA
:100D74001343FB613B69FA69DA603B685B6803F023
:100D84008053002B7CD0474A7B699B08183352F868
:100D94002330FB617B6903F00303DB000F2202FABB
:100DA40003F3DB43FA691340FB617B689A0A3E4B09
:100DB40013407A6902F00302D2009340FA691343A4
:100DC400FB6138497B699B081833FA6941F8232091
:100DD400344B1B68FB61FB68DB43FA691340FB611E
:100DE4003B685B6803F48013002B03D0FA69FB684B
:100DF4001343FB612B4AFB6913602A4B5B68FB615D
:100E0400FB68DB43FA691340FB613B685B6803F4EE
:100E14000013002B03D0FA69FB681343FB61214ADA
:100E2400FB6953601F4BD3F88430FB61FB68DB43E1
:100E3400FA691340FB613B685B6803F40033002BE1
:100E440003D0FA69FB681343FB61164AFB69C2F8D5
:100E54008430144BD3F88030FB61FB68DB43FA69C0
:100E64001340FB613B685B6803F48033002B03D0C1
:100E7400FA69FB681343FB610A4AFB69C2F88030D4
:100E84007B6901337B613B681A687B6922FA03F34F
:100E9400002B7FF43DAE00BF00BF2437BD465DF894
:100EA400047B7047002002467F7F2F0080B483B00C
:100EB40000AF78600B467B8013467B707B78002BF9
:100EC40003D07A887B689A6102E07A887B689A62A8
:100ED40000BF0C37BD465DF8047B704780B485B015
:100EE40000AF78600B467B807B685B69FB607A8827
:100EF400FB6813401A04FB68D9437B880B401A43F0
:100F04007B689A6100BF1437BD465DF8047B704767
:100F140080B400AF054B1B68044A43F0010313601F
:100F240000231846BD465DF8047B70470004034067
:100F340080B582B000AF0023FB71144B0222DA604B
:100F4400124B1B68114A23F001031360FFF7C2FC24
:100F540038600FE0FFF7BEFC02463B68D31A012B52
:100F640008D90A4B1B6803F00103002B02D00323AA
:100F7400FB7105E0054B1B6803F00103002BE9D16D
:100F8400FB7918460837BD4680BD00BF0004034006
:100F940080B487B000AF786039600023FB75224BC2
:100FA4001B6803F00103002B02D00123FB7534E01E
:100FB4007B689A001D4B13443B613B691B6803F437
:100FC4000043002B02D00123FB7526E03B681B681D
:100FD4005A0D3B689B685B421340DBB2FB603B6885
:100FE4005B685A093B689B685B421B041A40104BC0
:100FF4001340FA681343FB603B689B685A023B68E2
:10100400DB681A433B681B691343FA681343FB60AC
:10101400FB6843F400423B691A60FB7D18461C37A9
:10102400BD465DF8047B7047000403402004034080
:101034000000FF0780B485B000AF7860344BDB6BF1
:1010440003F44033BB60BA687B689A4201D1002341
:1010540057E07B68B3F5803F0AD92D4BDB6823F456
:10106400E0227B6813432A4A43F48023D36007E0D9
:10107400274BDB6823F4E02225497B681343CB60CC
:10108400244B1B68244AA2FB03239B09322202FB44
:1010940003F3214AA2FB03239B090133FB6002E013
:1010A400FB68013BFB601A4BDB6803F40043002B35
:1010B40002D1FB68002BF3D1FB68002B1BD0154B2E
:1010C4001B68154AA2FB03239B09322202FB03F38C
:1010D400114AA2FB03239B090133FB6002E0FB6876
:1010E400013BFB600A4BDB6B03F40043002B02D192
:1010F400FB68002BF3D1FB68002B01D1032300E034
:10110400002318461437BD465DF8047B704700BFC2
:101114000008024600000020D34D621080B400AFE6
:10112400044BDB6B03F440331846BD465DF8047B87
:10113400704700BF0008024680B58EB000AF7860EB
:10114400002387F837307B68002B02D1012300F09D
:10115400C6BE9C4BDB6903F00C033B63994B9B6A53
:1011640003F00303FB627B681B6803F01003002B8E
:1011740000F072813B6B002B07D03B6B0C2B40F0D3
:10118400E480FB6A012B40F0E0808E4B1B6803F087
:101194000403002B06D07B68DB69002B02D10123FA
:1011A40000F09DBE7B685A6A864B9B6803F400037B
:1011B400002B04D0834B9B6803F0704305E0814B04
:1011C400D3F8F4301B0403F07043934255D23B6BC5
:1011D400002B0AD17B685B6A184601F09BF9034631
:1011E400002B02D0012300F07ABE764B9B68754A2F
:1011F40043F400039360734B9B6823F070427B6855
:101204005B6A704913438B607B685B6AB3F1404F40
:1012140009D36C4BDB6823F01F027B681B6A6949A6
:101224001343CB607EE07B685B6A002B0ADA654B74
:10123400DB6823F478727B681B6A5B0161491343A2
:10124400CB606FE07B685B6AB3F1804F0AD35D4B80
:10125400DB6823F4F8427B681B6A9B0259491343F9
:10126400CB605FE0574BDB6823F478227B681B6A12
:10127400DB0354491343CB6054E0524B9B68514AFF
:1012840043F4000393604F4B9B6823F070427B68E8
:101294005B6A4C4913438B607B685B6AB3F1404FD4
:1012A40009D3484BDB6823F01F027B681B6A45495E
:1012B4001343CB6028E07B685B6A002B0ADA414B5E
:1012C400DB6823F478727B681B6A5B013D49134336
:1012D400CB6019E07B685B6AB3F1804F0AD3394B6A
:1012E400DB6823F4F8427B681B6A9B02354913438D
:1012F400CB6009E0334BDB6823F478227B681B6AFC
:10130400DB0330491343CB603B6B002B0AD17B6872
:101314005B6A184601F0FEF80346002B02D0012355
:1013240000F0DDBD01F0DCF8274B1B681846FFF721
:1013340087FA034687F8273097F82730002B00F008
:101344008A8097F8273000F0CABD7B68DB69002BE0
:1013540066D01C4B1B681B4A43F001031360FFF764
:10136400B9FAB86209E0FFF7B5FA0246BB6AD31AC4
:10137400022B02D9032300F0B2BD124B1B6803F009
:101384000403002BEFD00F4B9B680E4A43F4000379
:1013940093600C4B9B6823F070427B685B6A09493D
:1013A40013438B607B685B6AB3F1404F0ED3054BEC
:1013B400DB6823F01F027B681B6A02491343CB607E
:1013C4004AE000BF000C0246040000207B685B6A10
:1013D400002B0ADA984BDB6823F478727B681B6A6B
:1013E4005B0195491343CB6036E07B685B6AB3F1DC
:1013F400804F0AD3904BDB6823F4F8427B681B6A66
:101404009B028D491343CB6026E08B4BDB6823F4AE
:1014140078227B681B6ADB0387491343CB601BE09C
:10142400854B1B68844A23F001031360FFF752FACB
:10143400B86209E0FFF74EFA0246BB6AD31A022BE0
:1014440002D9032300F04BBD7B4B1B6803F004035C
:10145400002BEFD100E000BF7B681B6803F00103A1
:10146400002B00F099803B6B082B05D03B6B0C2BB9
:1014740011D1FB6A032B0ED16F4B1B6803F40033AD
:10148400002B00F088807B685B68002B40F0838031
:10149400012300F024BD7B685B68B3F5803F06D16F
:1014A400654B1B68644A43F48033136041E07B68F6
:1014B4005B68B3F5A02F12D15F4B1B685E4A43F4FF
:1014C400802313605C4B1B685B4A23F48013136016
:1014D400594B1B68584A43F48033136029E07B68F6
:1014E4005B68B3F5A81F12D1534B1B68524A43F4EF
:1014F40080231360504B1B684F4A43F480131360DE
:101504004D4B1B684C4A43F48033136011E04A4B43
:101514001B68494A23F480331360474B1B68464ACF
:1015240023F480231360444B1B68434A23F4801341
:1015340013607B685B68002B16D0FFF7CBF9B862A9
:101544000BE0FFF7C7F90246BB6AD31A41F28832AF
:10155400934202D9032300F0C2BC374B1B6803F447
:101564000033002BEDD017E0FFF7B4F9B8620BE0BD
:10157400FFF7B0F90246BB6AD31A41F288329342AC
:1015840002D9032300F0ABBC2B4B1B6803F40033DC
:10159400002BEDD100E000BF7B681B6803F0020361
:1015A400002B65D03B6B042B05D03B6B0C2B1AD165
:1015B400FB6A022B17D1204B1B6803F48063002BBA
:1015C40006D07B68DB68002B02D1012300F087BCC6
:1015D400194B1B6923F4F8127B681B691B04164919
:1015E40013430B6144E07B68DB68002B26D0124B6D
:1015F4001B68114A43F480731360FFF76BF9B862F8
:1016040009E0FFF767F90246BB6AD31A022B02D935
:10161400032300F064BC084B1B6803F48063002BB5
:10162400EFD0054B1B6923F4F8127B681B691B047C
:10163400014913430B611BE0000C0246A74B1B68D6
:10164400A64A23F480731360FFF744F9B86209E0F3
:10165400FFF740F90246BB6AD31A022B02D90323CF
:1016640000F03DBC9D4B1B6803F48063002BEFD15D
:101674007B681B6803F00803002B00F0C78000237D
:1016840087F83630954BD3F8943003F00403002BDD
:1016940011D1924BD3F89430904A43F00403C2F82A
:1016A40094308E4BD3F8943003F004037B617B6950
:1016B400012387F836308A4B9B6A03F00103002B21
:1016C40018D1874B9B6A864A43F001039362FFF764
:1016D40001F9B86208E0FFF7FDF80246BB6AD31AC5
:1016E400022B01D90323FAE37D4B9B6A03F0010328
:1016F400002BF0D07B685B69002B5FD0774BD3F86D
:10170400F0303B627B689A693B6A03F080539A42EB
:1017140037D03B6A03F00063002B06D03B6A03F02A
:101724008063002B01D10123D9E33B6A03F080637A
:10173400002B1BD0694BD3F8F030684A23F0A05338
:10174400C2F8F030FFF7C6F8B86208E0FFF7C2F855
:101754000246BB6AD31A022B01D90323BFE35F4BB2
:10176400D3F8F03003F00063002BEFD15B4BD3F8D8
:10177400F03023F080527B689B6958491343C1F8C9
:10178400F030564BD3F8F030544A43F08063C2F83B
:10179400F030FFF79FF8B86208E0FFF79BF80246C5
:1017A400BB6AD31A022B01D9032398E34B4BD3F81A
:1017B400F03003F00063002BEFD01BE0474BD3F86D
:1017C400F030464A23F0A053C2F8F030FFF782F815
:1017D400B86208E0FFF77EF80246BB6AD31A022B10
:1017E40001D903237BE33D4BD3F8F03003F00063CE
:1017F400002BEFD197F83630012B07D1374BD3F8B4
:101804009430364A23F00403C2F894307B681B6892
:1018140003F00403002B00F01181002387F8353016
:101824002E4BD3F8943003F00403002B11D12B4B2F
:10183400D3F89430294A43F00403C2F89430274B78
:10184400D3F8943003F004033B613B69012387F828
:101854003530234B9B6A03F00103002B18D1204B36
:101864009B6A1F4A43F001039362FFF733F8B8629F
:1018740008E0FFF72FF80246BB6AD31A022B01D9FE
:1018840003232CE3164B9B6A03F00103002BF0D0D7
:101894007B689B6803F00103002B23D07B689B6863
:1018A40003F00403002B10D00C4BD3F8F0300B4A98
:1018B40043F00403C2F8F030084BD3F8F030074A81
:1018C40043F00103C2F8F0301CE0044BD3F8F030CD
:1018D400024A43F00103C2F8F03013E0000C024660
:1018E40000080246A64BD3F8F030A54A23F00103C2
:1018F400C2F8F030A24BD3F8F030A14A23F004032D
:10190400C2F8F0307B689B68002B53D0FEF7E2FFEF
:10191400B8620AE0FEF7DEFF0246BB6AD31A41F260
:101924008832934201D90323D9E2954BD3F8F0309E
:1019340003F00203002BEDD07B689B6803F0800367
:10194400002B1BD08E4BD3F8F0308D4A43F080032C
:10195400C2F8F0300AE0FEF7BDFF0246BB6AD31AB4
:1019640041F28832934201D90323B8E2844BD3F87D
:10197400F03003F40063002BEDD053E0804BD3F838
:10198400F0307F4A23F08003C2F8F0300AE0FEF71B
:10199400A1FF0246BB6AD31A41F28832934201D9AD
:1019A40003239CE2764BD3F8F03003F40063002B5E
:1019B400EDD137E0FEF78EFFB8620AE0FEF78AFF4A
:1019C4000246BB6AD31A41F28832934201D90323F7
:1019D40085E26B4BD3F8F03003F00203002BEDD11A
:1019E400674BD3F8F03003F08003002B1AD0644B1C
:1019F400D3F8F030624A23F08003C2F8F0300AE0F2
:101A0400FEF768FF0246BB6AD31A41F2883293425A
:101A140001D9032363E25A4BD3F8F03003F4006393
:101A2400002BEDD197F83530012B07D1544BD3F867
:101A34009430534A23F00403C2F894307B681B6843
:101A440003F02003002B36D07B68DB6A002B19D00F
:101A54004B4B1B684A4A43F480531360FEF73AFF2A
:101A6400B86208E0FEF736FF0246BB6AD31A022BBF
:101A740001D9032333E2424B1B6803F40053002BC8
:101A8400F0D018E03E4B1B683D4A23F480531360AA
:101A9400FEF720FFB86208E0FEF71CFF0246BB6AAF
:101AA400D31A022B01D9032319E2354B1B6803F423
:101AB4000053002BF0D17B681B6803F08003002BDC
:101AC40036D07B681B6B002B19D02D4B1B682C4A1E
:101AD40043F480431360FEF7FDFEB86208E0FEF7AE
:101AE400F9FE0246BB6AD31A022B01D90323F6E19D
:101AF400234B1B6803F40043002BF0D018E0204B69
:101B04001B681F4A23F480431360FEF7E3FEB862A8
:101B140008E0FEF7DFFE0246BB6AD31A022B01D9A6
:101B24000323DCE1164B1B6803F40043002BF0D1C4
:101B34007B681B6803F04003002B7FD07B685B6BE2
:101B4400002B62D00E4B9B680D4A43F40003936054
:101B54000B4B9B6823F070627B689B6A08491343B4
:101B64008B607B685B6AB3F1404F0BD3044BDB683B
:101B740023F01F027B681B6A01491343CB602AE0F0
:101B8400000C02467B685B6A002B0ADAA54BDB6813
:101B940023F478727B681B6A5B01A2491343CB6010
:101BA40019E07B685B6AB3F1804F0AD39D4BDB6815
:101BB40023F4F8427B681B6A9B029A491343CB6067
:101BC40009E0984BDB6823F478227B681B6ADB030B
:101BD40094491343CB60934B1B68924A43F0100320
:101BE4001360FEF777FEB86208E0FEF773FE024664
:101BF400BB6AD31A022B01D9032370E1894B1B68FA
:101C040003F02003002BF0D018E0864B1B68854AB4
:101C140023F010031360FEF75DFEB86208E0FEF7E0
:101C240059FE0246BB6AD31A022B01D9032356E19B
:101C34007C4B1B6803F02003002BF0D17B689B6B6B
:101C4400002B00F04B81002387F83430754BDB699F
:101C540003F00C030C2B00F0FA807B689B6B022BC7
:101C640040F0CC806F4B1B686E4A23F08073136086
:101C7400FEF730FEB86208E0FEF72CFE0246BB6AAF
:101C8400D31A022B01D9032329E1664B1B6803F005
:101C94000073002BF0D1634BD3F8943003F00403AA
:101CA400002B11D15F4BD3F894305E4A43F0040308
:101CB400C2F894305B4BD3F8943003F00403FB6018
:101CC400FB68012387F83430574BDB6803F4802327
:101CD400B3F5802F02D1012387F83730524BDB68EC
:101CE400514A23F48023D3604E4B9B6A23F47F43F1
:101CF40023F003037A68D16B7A68126C013A1202FA
:101D040011437A68526C0A43464913438B62454B2C
:101D14005A6B464B13407A68926C013AC2F308013D
:101D24007A68D26C013A520292B211437A68126D07
:101D3400013A120402F4FE0211437A68526D013A28
:101D4400120602F0FE420A43364913434B63354BF5
:101D54009B6A344A23F010039362324B9B6B23F447
:101D64007F4323F0F8037A68D26DD2002D491343E0
:101D74008B632C4B9B6A2B4A43F010039362294BD1
:101D84009B6A23F00C027B689B6D264913438B628C
:101D940097F83730012B05D1234BDB68224A43F4F3
:101DA4008023D36097F83430012B07D11D4BD3F82F
:101DB40094301C4A23F00403C2F89430194B9B6AF4
:101DC400184A43F480239362164B1B68154A43F068
:101DD40080731360FEF77EFDB86208E0FEF77AFDBB
:101DE4000246BB6AD31A022B01D9032377E00D4BB9
:101DF4001B6803F00073002BF0D06FE0094B1B68E5
:101E0400084A23F080731360FEF764FDB8620FE0A4
:101E1400FEF760FD0246BB6AD31A022B08D90323DE
:101E24005DE000BF000C024600080246000080800E
:101E34002D4B1B6803F00073002BE9D12A4B9B6ADE
:101E4400294A23F4E02323F00303936246E0264B5C
:101E54009B6AFB61244B5B6BBB617B689B6B012BB7
:101E64003AD0FB6903F003027B68DB6B9A4233D1FF
:101E7400FB691B0A03F00F027B681B6C013B9A424F
:101E84002AD1FB691B0B03F00F027B685B6C9A423F
:101E940022D1BB69C3F308027B689B6C013B9A4265
:101EA4001AD1BB695B0A03F07F027B68DB6C013BE0
:101EB4009A4211D1BB691B0C03F07F027B681B6D36
:101EC400013B9A4208D1BB691B0E03F07F027B6879
:101ED4005B6D013B9A4201D0012300E000231846C8
:101EE4003837BD4680BD00BF000C024680B586B0C1
:101EF40000AF786039607B68002B01D10123D9E100
:101F04009B4B1B6803F00F033A689A4210D9984B15
:101F14001B6823F00F0296493B6813430B60944BF4
:101F24001B6803F00F033A689A4201D00123C1E110
:101F34007B681B6803F01003002B10D07B685A6980
:101F44008C4B5B6A03F070039A4208D9894B5B6A35
:101F540023F070027B685B69864913434B627B689C
:101F64001B6803F00803002B12D07B681A69814BAD
:101F74001B6A1B0903F070039A4209D97D4B1B6A43
:101F840023F4E0627B681B691B017A4913430B62EB
:101F94007B681B6803F00403002B10D07B68DA68AD
:101FA400744B1B6A03F070039A4208D9714B1B6A85
:101FB40023F070027B68DB686E4913430B627B6815
:101FC4001B6803F00203002B10D07B689A68694BEE
:101FD4001B6A03F00F039A4208D9664B1B6A23F06D
:101FE4000F027B689B68634913430B627B681B6821
:101FF40003F00103002B00F0D2800023FB757B6803
:102004005B68032B43D15B4BD3F8943003F0040398
:10201400002B10D1574BD3F89430564A43F00403A5
:10202400C2F89430534BD3F8943003F00403BB60EC
:10203400BB680123FB75FEF74DFC38614E4BDB6832
:1020440003F48023002B0FD008E0FEF743FC024684
:102054003B69D31A022B01D903232BE1464BDB68DE
:1020640003F48043002BF0D0FB7D012B07D1414BBF
:10207400D3F894303F4A23F00403C2F894303D4B24
:102084001B6803F00073002B21D1012312E17B684C
:102094005B68022B07D1374B1B6803F40033002B1A
:1020A40015D1012306E17B685B68002B07D1314B16
:1020B4001B6803F00403002B09D10123FAE02D4B24
:1020C4001B6803F48063002B01D10123F2E0294B48
:1020D400DB6923F003027B685B6826491343CB6109
:1020E400FEF7F8FB38617B685B68032B12D10AE0CA
:1020F400FEF7F0FB02463B69D31A41F28832934261
:1021040001D90323D6E01B4BDB6903F00C030C2B32
:10211400EED144E07B685B68022B12D10AE0FEF743
:10212400D9FB02463B69D31A41F28832934201D962
:102134000323BFE00F4BDB6903F00C03082BEED144
:102144002DE07B685B68002B23D10AE0FEF7C2FB1D
:1021540002463B69D31A41F28832934201D90323E0
:10216400A8E0044BDB6903F00C03002BEED116E06E
:1021740000200240000C024600080246FEF7AAFBBB
:1021840002463B69D31A41F28832934201D90323B0
:1021940090E04A4BDB6903F00C03042BEED17B681F
:1021A4001B6803F00203002B10D07B689A68434B32
:1021B4001B6A03F00F039A4208D2404B1B6A23F0B8
:1021C4000F027B689B683D4913430B623C4B1B68C1
:1021D40003F00F033A689A4210D2394B1B6823F07C
:1021E4000F0237493B6813430B60354B1B6803F000
:1021F4000F033A689A4201D001235BE07B681B68B5
:1022040003F00403002B10D07B68DA682B4B1B6AA5
:1022140003F070039A4208D2284B1B6A23F0700221
:102224007B68DB68254913430B627B681B6803F0FA
:102234000803002B12D07B681A69204B1B6A1B0908
:1022440003F070039A4209D21C4B1B6A23F4E06228
:102254007B681B691B01194913430B627B681B686C
:1022640003F01003002B10D07B685A69134B5B6A90
:1022740003F070039A4208D2104B5B6A23F0700299
:102284007B685B690D4913434B6200F021F80246F9
:102294000A4B1B6A03F00F030A49CB5C22FA03F3CF
:1022A400094A1360094B1B681846FEF7C9FA03462E
:1022B400FB73FB7B18461837BD4680BD000C0246F5
:1022C40000200240942600080000002004000020A2
:1022D40080B48BB000AF00237B6200233B627B4B56
:1022E400DB6903F00C03BB61784B9B6A03F00303C7
:1022F4007B61BB69002B05D0BB690C2B21D17B69A9
:10230400012B1ED1714B9B6803F40003002B07D1F2
:102314006E4BD3F8F4301B0B03F00F037B6205E024
:102324006A4B9B681B0F03F00F037B62684A7B6A4E
:1023340052F823307B62BB69002B10D17B6A3B626D
:102344000DE0624BDB6903F00C03042B02D1614BFB
:102354003B6204E0BB69082B01D15E4B3B62BB6965
:102364000C2B40F0AC80594B9B6A03F003033B6198
:10237400564B9B6A1B0A03F00F030133FB60534B5C
:102384009B6A1B0903F00103BB60504B9B6BDB088A
:10239400C3F30C03BA6802FB03F307EE903AF8EEBA
:1023A400677AC7ED017AFB68002B00F086803B69F1
:1023B400022B03D03B69032B22D043E0FB6807EEDA
:1023C400903AF8EE677ADFED446A86EEA77A3F4BDF
:1023D4005B6BC3F3080307EE903AF8EE676A97ED78
:1023E400016ADFED3E5AC6EE257A76EEA77AF7EE5D
:1023F400006A77EEA67A67EE277AC7ED077A46E099
:10240400FB6807EE903AF8EE677ADFED336A86EE02
:10241400A77A2E4B5B6BC3F3080307EE903AF8EEF2
:10242400676A97ED016ADFED2D5AC6EE257A76EEDE
:10243400A77AF7EE006A77EEA67A67EE277AC7EDF9
:10244400077A24E07B6A07EE903AF8EE676AFB6845
:1024540007EE903AF8EE677A86EEA77A1B4B5B6B31
:10246400C3F3080307EE903AF8EE676A97ED016A42
:10247400DFED1A5AC6EE257A76EEA77AF7EE006AF1
:1024840077EEA67A67EE277AC7ED077A00BF0F4B7F
:102494005B6B1B0E03F07F0301333B603B6807EE6D
:1024A400903AB8EE677AD7ED076AC6EE877AFCEE03
:1024B400E77A17EE903A3B6201E000233B623B6A05
:1024C40018462C37BD465DF8047B7047000C024665
:1024D400A42600080024F4000024744B00000046E5
:1024E40080B500AFFFF7F4FE0246074B1B6A03F00A
:1024F4000F030649CB5C22FA03F3054A1360044B2D
:102504001B68184680BD00BF000C024694260008D4
:102514000000002080B586B000AF78603E4BD3F851
:10252400943003F00403002B03D0FEF7F7FD786129
:1025340019E0394BD3F89430374A43F00403C2F816
:102544009430354BD3F8943003F00403FB60FB68FC
:10255400FEF7E4FD7861304BD3F894302E4A23F033
:102564000403C2F894307B69B3F5403F03D07B6920
:10257400B3F5003F09D17B68B3F1805F02D2012338
:102584003B6133E000233B6130E07B68B3F1805F63
:1025940008D27B69B3F5803F02D103233B6125E078
:1025A400012335E07B68B3F1005F0FD97B69002B11
:1025B40009D17B68B3F1405F02D900233B6115E088
:1025C40001233B6112E000233B610FE07B68B3F120
:1025D400805F09D17B69B3F5803F02D101233B6160
:1025E40004E002233B6101E001233B610B4B1B68C8
:1025F40023F00F0209493B6913430B60074B1B6827
:1026040003F00F033A699A4201D0012300E000234A
:1026140018461837BD4680BD000C02460020024013
:1026240070B50D4D00260D4C641BA410A64209D1B3
:102634000B4D00260B4C00F01FF8641BA410A6429F
:1026440005D170BD55F8043B01369847EEE755F8BF
:10265400043B01369847F2E7642700086427000822
:10266400642700086827000802440346934200D107
:10267400704703F8011BF9E7F8B500BFF8BC08BCC4
:102684009E467047F8B500BFF8BC08BC9E4670472C
:10269400000000000000000001020304060708090E
:1026A400006CDC0200366E010024F400001BB7004D
:1026B40000093D0080841E0060E3160040420F00C4
:1026C40000E02E000070170000A00F0000B80B00FF
:1026D400801A0600400D0300F0490200A0860100A4
:1026E400000002420100000000000242030000005A
:1026F4000000024206000000000402420100000043
:10270400000402420A000000000802420200000025
:10271400000C02420D000000000C02420200000006
:10272400000802420A000000000402420000000007
:10273400000802420C0000000004024203000000F2
:1027440000040242040000000010024200000000E5
:1027540000100242020000000010024203000000C8
:04276400590200080E
:04276800350200082E
:09276C0000093D0010000000010D
:040000050800079553
:00000001FF
